{
  "network": "mainnet",
  "raw_tx": "020000000144444444444444444444444444444444444444444444444444444444444444440000000000ffffffff02f4010000000000001600140909090909090909090909090909090909090909e8030000000000001976a9140a0a0a0a0a0a0a0a0a0a0a0a0a0a0a0a0a0a0a0a88ac00000000",
  "prevouts": [
    {
      "txid": "4444444444444444444444444444444444444444444444444444444444444444",
      "vout": 0,
      "value_sats": 10000,
      "script_pubkey_hex": "76a9140b0b0b0b0b0b0b0b0b0b0b0b0b0b0b0b0b0b0b0b88ac"
    }
  ]
}