{
  "network": "mainnet",
  "raw_tx": "020000000155555555555555555555555555555555555555555555555555555555555555550000000000ffffffff0101000000000000001976a9140c0c0c0c0c0c0c0c0c0c0c0c0c0c0c0c0c0c0c0c88ac00000000",
  "prevouts": [
    {
      "txid": "5555555555555555555555555555555555555555555555555555555555555555",
      "vout": 0,
      "value_sats": 2000000,
      "script_pubkey_hex": "76a9140d0d0d0d0d0d0d0d0d0d0d0d0d0d0d0d0d0d0d0d88ac"
    }
  ]
}