{
  "network": "mainnet",
  "raw_tx": "0200000000010199999999999999999999999999999999999999999999999999999999999999990000000000ffffffff012823000000000000160014aaaaaaaaaaaaaaaaaaaaaaaaaaaaaaaaaaaaaaaa01fdfd00edfb7a8384ce069339c421d10cf6b485e3ab1ab79f6d78247be23ad9e21fa0b374ac78b6edf5fcfa8b408f66abff4e8ccca580b27acee2666e334bd444020826a7e198f575cd85ed7d5ceb3342b17c7782c4d37fce6f8ea9e808d44a5175eacf1970b0b7c8f6834273ecf72ef76cd7ba7af010a644e77f5e1831bfdb692573ea03170073948beed6159ccb323f1e9e0bc08bf444abc1a25b270150aa9593c4edf3dc7db0b8f0228b39799621f599e0b1814a156aab28ef22c8c8ea964e816963ce2685ce326003f51b63e3120dd558a55aefc5f10606827953ae4d7353e91f7ff277929ece2b279785346f9f5675993badb5118c660832a5eb2c0ba58b00000000",
  "prevouts": [
    {
      "txid": "9999999999999999999999999999999999999999999999999999999999999999",
      "vout": 0,
      "value_sats": 10000,
      "script_pubkey_hex": "0014bbbbbbbbbbbbbbbbbbbbbbbbbbbbbbbbbbbbbbbb"
    }
  ]
}